:02000000F22DDF
:10000800FF00030E8301AF000A08B0008A018B1CB1
:100018000F28A10A8B100C1C1728DC308E000B301F
:100028008F00A20A0C1030088A002F0E8300FF0EE2
:040038007F0E09002E
:0E003C00F201F101F001F801F30100300800BB
:10004A007B15FB1F2F280130F300F201F101F001AB
:08005A00FA0DF20CFF30080062
:08006200FA1FF2130030080040
:10006A00FB14FB1F3F28FF30F300F200F100F00001
:08007A00FA0DF20CFF30080042
:1000820083160313981690308312980083168717ED
:10009200071383128C1E50281A08F0004A28080001
:1000A200831603132508F2007208F100F20A2608EB
:1000B200F000A60A700884000008F00071088400AD
:1000C2007008800071088400000803196928552807
:0600D2002508F000080003
:1000D80083120313FB017308031D77080319C32850
:1000E80072087606FA007708F3077E30031C80282A
:1000F800F3020318C6288328F302031CC9287208D0
:10010800F8007108FC007008FD00F817F6170310D6
:10011800F201F101F0011830A0007D1C9D2874083F
:10012800F00775080318750FF10776080318760F9E
:10013800F207F20CF10CF00CF80CFC0CFD0C03109F
:10014800A00B9128F21BAD28F80DF00DF10DF20D62
:10015800F3037B1B701CBF28F81FBF28F00A031984
:10016800F10A0319F20A031DBF28F20CF10CF00C76
:10017800F30A0319C628FA1FF2130030CB280130FE
:100188001E20CB2802303520CB2804302520000043
:0201980008005D
:10019A0083120313FD01F801700803190034740671
:1001AA00FA00FA1BFD09FB01F41FDD28F409F40A21
:1001BA00F01FE128F009F00A70087404FA00FA1B2B
:1001CA0005297408F802F00D700DF80D7408F80787
:1001DA00F00D0630FC00700DF80D74087018F80266
:1001EA00701CF807F00DFC0BF028701CF8077B1840
:1001FA001329FD1F0034F009F00AF809F80A00343F
:10020A00F41F1029F01B0D297008F800F001FE28D0
:10021A00F001F00A0034F009FB0AE628F80A74082B
:10022A007802031DFE28F801F00AF01FFE28FF34A9
:02023A000800BA
:10023C00831603139818242900001E2925088312FD
:04024C00990008000D
:06025000FB15FF30080061
:0E025600831203132E088A002D088200080070
:100264007C186829FC1839297C1987293229A001AE
:100274007208031D59297108F2007008F10078080A
:10028400F000F801A0157208031D59297108F20045
:100294007008F100F001A01120167208031D5929FD
:1002A4007108F200F101A015720803197B292008D6
:1002B400F302031D031C7F290310F21B6829F80DA8
:1002C400F00DF10DF20DF30B5F297F297B1B701CE0
:1002D4008329F81F8329F00A0319F10A0319F20A82
:1002E400031D8329F20CF10CF00CF30A031987297E
:1002F40083290130FC001E208A290230FC002520BD
:100304008A290430FC0031208A290830FC00352079
:0403140000000800DD
:1003180083120313FA017308031D7A147708031D67
:10032800FA147A080319D829033A0319A3297A1861
:10033800A029F61FD629D429F21FD429D629720854
:100348008039FA00F21376088039F6137A06031911
:10035800B1297A080319D429D62977087302031911
:10036800B829031CCC29D029760872020319BF29A1
:10037800031CCC29D029750871020319C629031C4E
:10038800CC29D029740870020319D8290318D02958
:10039800FA080319D629D429FA080319D429D62921
:1003A80003140800031008000314031508000800CC
:1003B800A0017208031DF1297108F2007008F1000C
:1003C800F001A0157208031DF1297108F200F1016E
:1003D800A011201672080319FF292008F302031D33
:1003E800031C032A0310F21B072AF00DF10DF20D6E
:1003F800F30BF729032A0130FC001E200A2A0230D9
:0E040800FC0025200A2A0430FC0031200800E8
:10041600831203137408003A031D262A7508003A4E
:10042600031D262A7608003A031D262A7708003A75
:10043600031D262AFF30F000FF30F1007F30F20066
:10044600FF30F300C12A8312031377080319B52A74
:1004560073080319B82A720876068039FA00F2176B
:10046600F617A0017208F8007108FC007008FD007C
:100476007408FD027508031C750FFC027608031C40
:10048600760FF802F801FC01FD01031C512A031046
:10049600F20CF10CF00CF80C0130A0007708F30216
:1004A600031C5B2A7E302007F3070318BB2A602A49
:1004B6007E302007F307031CBE2A1830FA07FD0D0D
:1004C600FC0DF80DF00DF10DF20DA00D7408F00203
:1004D6007508031C750FF1027608031C760FF202ED
:1004E600760DA004201C792A7D14842A7408F0074E
:1004F60075080318750FF10776080318760AF207D0
:100506007D10FA031F307A05031D622A7B1B7D1CB2
:10051600AB2A0310F00DF10DF20DA00D7408F002D8
:100526007508031C750FF1027608031C760FF2029C
:10053600760D20040139FD070318FC0A0319F80A91
:10054600031DAB2AF80CFC0CFD0CF30A0319BB2A9D
:10055600FA1FF8137808F2007C08F1007D08F00015
:100566000030C02A01302821C02A02301E20C02AAD
:0E05760004303520C02A08302520000008007F
:1005840083120313EF018316A401831268088316F0
:10059400A000831269088316A10083126A088316D7
:1005A400A20083126B088316A3002308FF3A031DDD
:1005B400E52A2208FF3A031DE52A2108FF3A031D14
:1005C400E52A2008FF3A031DF12A83126C088316DA
:1005D400A5002330A60051200330F000EF2C013099
:1005E4008312ED008316A21F032B80302206F00035
:1005F4007008A2008312ED0A6C0884002D3080007C
:10060400EC0A0030F00083162306031D132B700838
:100614002206031D132B70082106031D132B20082B
:10062400003A031D1E2B83126C088316A5002B3081
:10063400A6005120F001EF2C2308FF3A031D2C2BB8
:100644002208003A031D2C2B2108003A031D2C2BF1
:100654002008003A031D392B83126C088316A50069
:100664002730A600512083126D08F000EF2C0030D3
:10067400F4000030F5000030F6007F30F7008316F8
:100684002008F0002108F1002208F2002308F300FA
:100694008C21013003180030F000700803196F2B0F
:1006A40083162008F0002108F1002208F200230834
:1006B400F3000030F4000030F5002030F600823002
:1006C400F7006C2070088316A0007108A10072085E
:1006D400A2007308A300A403392B83160030F4008E
:1006E4000030F5002030F6008230F7002008F000DA
:1006F4002108F1002208F2002308F3008C210130C4
:10070400031C0030F00070080319A52B8316200881
:10071400F0002108F1002208F2002308F300CD3094
:10072400F400CC30F5004C30F6007B30F7006C2040
:1007340070088316A0007108A1007208A200730853
:10074400A300A40A6F2B8316FF302005F800FF30A6
:100754002105F9007F302205FA0000302305FB0053
:100764007808F4007908F5007A08F6007B08F700A9
:10077400F40DF50DF60DF70D741000302005F000A2
:1007840000302105F10000302205F200FF3023057E
:10079400F3007008A0007108A1007208A200730899
:1007A400A30074082004F00075082104F100760801
:1007B4002204F20077082304F3007008A0007108F3
:1007C400A1007208A2007308A3007F302302F00086
:1007D40070088312EE0001308316A3007008F40041
:1007E4002008F0002108F1002208F2002308F30099
:1007F40074080319042CF00DF10DF20DF30D7010B3
:10080400FF3EFB2B7008A0007108A1007208A20033
:100814007308A3002308303EF00083126C088400A0
:1008240070088000EC0A803083162406F0008030C3
:10083400013A7002031C272C8030063AF000803005
:1008440024067002031C272C2F2C83126C088400AE
:100854002E308000EC0A0130EF0083120630EE00E7
:100864006E08003A0319932C8316A3012008F000A4
:100874002108F1002208F2002308F300F00DF10D25
:10088400F20DF30D7010F00DF10DF20DF30D70106B
:100894002008F00721080318210FF1072208031884
:1008A400220FF20723080318230FF3077008A00090
:1008B4007108A1007208A2007308A3002008F000C8
:1008C4002108F1002208F2002308F300F00DF10DD5
:1008D400F20DF30D70107008A0007108A1007208E9
:1008E400A2007308A3002308303EF00083126C08B2
:1008F400840070088000EC0A6F08003A031D902CF5
:100904008316A4032408003A031D902C83126C0858
:1009140084002E308000EC0A0130EF008312EE03D5
:10092400322CFF306C0784000008303A031D9C2CE5
:10093400EC03932CFF306C07840000082E3A031D4F
:10094400A42CEC0383162408003A0319EA2C83121E
:100954006C08840065308000EC0A8030831624061D
:10096400F0008030003A70020318C22C83126C0825
:1009740084002D308000EC0A83162408003CA40077
:1009840024088312EE008030093AF0008030831688
:10099400240670020318DB2C0A30F40083126E085C
:1009A400F000CD203030F0076C088400700880001F
:1009B400EC0A83120A30F4006E08F000CD207808A7
:1009C400F0003030F0076C08840070088000EC0AF6
:0C09D40083126C0884008001F001080010
:1009E00083120313EA01680884000008E90069081B
:1009F000003A0319062D69088316A5001E21EA0A8C
:0E0A00006A08680784000008E900F72C080067
:100A0E00831203137008F800FB01FC019E30F30003
:100A1E00FA01F201F101F0010230FC00322108006E
:100A2E00831603130F128F160F170F191F2D1C2D60
:100A3E000D30FC00FB30FD00FD0B232DFC0B232D98
:060A4E000000000008009A
:100A54002B218A110A128000840AAD0A0319AE0AF6
:080A6400F003031D2A2D080018
:100A6C008312031372087606A000F801F9017308CB
:100A7C007702031C592D7708FD007308F7007D08D9
:100A8C00F3007608FD007208F6007D08F200750888
:100A9C00FD007108F5007D08F1007408FD00700878
:100AAC00F4007D08F00077080319D22D7208FA00C3
:100ABC00F217F61777087302F70003198C2D08301C
:100ACC007702031C822DF7007408F9007508F400F6
:100ADC007608F500F60108307702031C822DF7002A
:100AEC007408F9007508F400F50108307702031C4E
:100AFC00822D7A08F200D22D770803198C2D031061
:100B0C00F60CF50CF40CF90CF70B852DA01F992D98
:100B1C00F909F409F509F609F90A0319F40A031994
:100B2C00F50A0319F60A7908F80774080318740F04
:100B3C00F00775080318750FF10776080318760F80
:100B4C00F207A01BB22D031CC22DF20CF10CF00C01
:100B5C00F80CF30FC22DCE2D0318C62DF809F00991
:100B6C00F109F209F80A0319F00A0319F10A031939
:100B7C00F20A8030FA06CA2D0130FC003221D42D45
:100B8C000230FC003221D42D0430FC00DC21D42DA9
:100B9C000830FC003520D42D0030FC00000008008B
:100BAC008316031788018901FF3003138500FF307A
:100BBC008600FE308700313083129000DC308E00CE
:100BCC000B308F0083160C140117D0308B001930AA
:080BDC009900181541200800E2
:100BE400D02683120313D101D201D301D4011725D6
:100BF400D62502302202031C982E2108F000072576
:100C04000030F4000030F5006130F6008730F70062
:100C14000B227008E4007108E5007208E60073080E
:100C2400E7005108F0005208F1005308F20054089C
:100C3400F3006408F4006508F5006608F600670828
:100C4400F70036257008D1007108D2007208D3006D
:100C54007308D4006408E8006508E9006608EA003F
:100C64006708EB005530EC00C2225730831203139F
:100C7400B1006130B2007430B3006530B40072303A
:100C8400B5006630B6006C30B7006F30B80077300E
:100C9400B9003A30BA002030BB00BC013130E80062
:100CA400F0245530E800F0242030BD004C30BE0064
:100CB4002F30BF007330C0002C30C100C2013D3062
:100CC400E800F0245108E8005208E9005308EA005B
:100CD4005408EB005530EC00C22220308312031379
:100CE400C3005630C4006F30C5006C30C600753088
:100CF400C7006D30C8006530C9003A30CA002030E2
:100D0400CB00CC014330E800F0245530E800F02457
:100D14002030CD004C30CE002030CF00D0014D30FB
:100D2400E800F024A101A20101308706FB2D992ED1
:100DA000213084000C3083120313F000C330AD00F7
:080DB0000630AE002A25080000
:100D3E005734613474346534723466346C346F34C1
:080D4E0077343A3420340034FC
:0C0D560020344C342F3473342C3400341F
:100D6200203456346F346C3475346D3465343A340F
:040D720020340034F5
:080D760020344C342034003419
:080D7E0000340034003400349D
:020D8600003437
:020D8800003435
:080D8A004E3461344E34003494
:080D920049344E3446340034AC
:040D9A0030340034BD
:04400E00F42F000784
:00000001FF
