:02000000B22E1E
:10000800FF00030E8301B3000A08B4008A017008D8
:10001800A4007C08A3007D08A2000408A500DA015A
:100028000C118E018F010C191A2817288E018F01C7
:100038001608DB00DC01DD01DE015D08F7005C0865
:10004800F6005B08F500F4017408DB007508DC00B5
:100058007608DD007708DE001508F000F101F201EE
:10006800F3017408F00775080318750FF10776088F
:100078000318760FF20777080318770FF30770084D
:10008800DB007108DC007208DD007308DE001E303A
:10009800F400F501F601F70186257008DB00710808
:1000A800DC007208DD007308DE0070088316AC00FF
:1000B8007108AD007208AE007308AF00A030B00040
:1000C800BD2550308312B5006530B6007230B700D8
:1000D8006930B8006F30B9006430BA002A30BB000C
:1000E8003730BC002E30BD003530BE003A30BF007E
:1000F8002030C000C1013530EE005C26A030EE0093
:100108005C265B08F0005C08F1005D08F2005E0800
:10011800F300AD247008F4007108F5007208F600C9
:100128007308F7000030F0002430F1007430F2005A
:100138009230F300CF2470088316AC007108AD002C
:100148007208AE007308AF005F30B0008A15002057
:100158008A11203083120313C2007530C300733034
:10016800C4002C30C5002030C6004630C7006C30B3
:10017800C8006F30C9007730CA007230CB006130D8
:10018800CC007430CD006530CE003A30CF0020303E
:10019800D000D1014230EE005C265F30EE005C26D4
:1001A8002030D2004C30D3002F30D4006D30D50031
:1001B8006930D6006E30D7002030D800D9015230CF
:1001C800EE005C26063081000B117D305A020318C0
:1001D800FB280B1DFA28DA0AB00A3008FA3C031883
:1001E800F728FA30B0000B1106308100E9280C110D
:1001F8002408F0002308FC002208FD0025088400DC
:0E02080034088A00330E8300FF0E7F0E0900BB
:1002160083120313FB01FA01F901F801A001730D22
:10022600F80D7408F8027508031C750FF9027608B4
:10023600031C760FFA027708031C770FFB020001F6
:10024600031C0130A002F30D0730FC00730DF80DFE
:10025600F90DFA0DFB0DA00D7408731C4429F80264
:100266007508031C750FF9027608031C760FFA024F
:100276007708031C770FFB020001031C0130A00264
:100286005529F80775080318750FF9077608031836
:10029600760FFA0777080318770FFB070001031894
:1002A6000130A007F30DFC0B2929720DF80DF90D8D
:1002B600FA0DFB0DA00D7408731C7329F80275085E
:1002C600031C750FF9027608031C760FFA027708ED
:1002D600031C770FFB020001031C0130A0028429D6
:1002E600F80775080318750FF90776080318760FCF
:1002F600FA0777080318770FFB0700010318013088
:10030600A007F20D0730FC00720DF80DF90DFA0D7D
:10031600FB0DA00D7408721CA229F8027508031CB7
:10032600750FF9027608031C760FFA027708031C8C
:10033600770FFB020001031C0130A002B329F80766
:1003460075080318750FF90776080318760FFA076C
:1003560077080318770FFB07000103180130A00781
:10036600F20DFC0B8729710DF80DF90DFA0DFB0D39
:10037600A00D7408721CD129F8027508031C750FAC
:10038600F9027608031C760FFA027708031C770F2A
:10039600FB020001031C0130A002E229F8077508E0
:1003A6000318750FF90776080318760FFA0777080A
:1003B6000318770FFB07000103180130A007F10DA2
:1003C6000730FC00710DF80DF90DFA0DFB0DA00DAF
:1003D6007408711C002AF8027508031C750FF902CF
:1003E6007608031C760FFA027708031C770FFB02C8
:1003F6000001031C0130A002112AF8077508031832
:10040600750FF90776080318760FFA0777080318A9
:10041600770FFB07000103180130A007F10DFC0B55
:10042600E529700DF80DF90DFA0DFB0DA00D7408F8
:10043600711C2F2AF8027508031C750FF90276083D
:10044600031C760FFA027708031C770FFB020001E4
:10045600031C0130A002402AF80775080318750F1F
:10046600F90776080318760FFA0777080318770F47
:10047600FB07000103180130A007F00D0730FC0050
:10048600700DF80DF90DFA0DFB0DA00D7408701C1A
:100496005E2AF8027508031C750FF9027608031C1C
:1004A600760FFA027708031C770FFB020001031C84
:1004B6000130A0026F2AF80775080318750FF907AF
:1004C60076080318760FFA0777080318770FFB07E5
:1004D600000103180130A007F00DFC0B432A701829
:1004E600822A7408F80775080318750FF907760845
:1004F6000318760FFA0777080318770FFB0708002B
:0E050600F201F101F001F801F30100300800EC
:100514007B15FB1F942A0130F300F201F101F00175
:08052400FA0DF20CFF30080093
:08052C00FA1FF2130030080071
:10053400FB14FB1FA42AFF30F300F200F100F000CB
:08054400FA0DF20CFF30080073
:10054C0083120313FA017308031D7A147708031D31
:10055C00FA147A080319F22A033A0319BD2A7A18F5
:10056C00BA2AF61FF02AEE2AF21FEE2AF02A720897
:10057C008039FA00F21376088039F6137A060319DB
:10058C00CB2A7A080319EE2AF02A7708730203198A
:10059C00D22A031CE62AEA2A760872020319D92AFF
:1005AC00031CE62AEA2A750871020319E02A031CC7
:1005BC00E62AEA2A740870020319F22A0318EA2AB6
:1005CC00FA080319F02AEE2AFA080319EE2AF02A7F
:1005DC000314080003100800031403150800080096
:1005EC00831603139818FC2A0000F62A3708831286
:0405FC00990008005A
:1006000083160313BC01BD0100303D02031D0A2BFC
:100610000A303C020318152B3C083B0784002030AD
:100620008000BC0A0319BD0A042B3C083B07840068
:1006300080010130BC02031CBD033C083B07BE0027
:100640000A30F400F501F601F7013708F000380828
:10065000F1003908F2003A08F3000B217808F000A5
:100660007908F1007A08F2007B08F3003030F007D7
:1006700083163E088400700880000A30F400F501FB
:10068000F601F7013708F0003808F1003908F200E8
:100690003A08F3000B2170088316B7007108B80000
:1006A0007208B9007308BA000030F4007306031D25
:1006B000632B74087206031D632B74087106031DF7
:1006C000632B7008003A031D662B6B2B0130BC02B4
:0806D000031CBD031D2B0800F3
:0E06D8008312031332088A00310882000800E2
:1006E6008316031398169030831298008316871783
:1006F600071383128C1E822B1A08F0007C2B08002D
:100706007C18B92BFC188A2B7C19D82B832BA101BA
:100716007208031DAA2B7108F2007008F100780810
:10072600F000F801A1157208031DAA2B7108F2004A
:100736007008F100F001A11121167208031DAA2B01
:100746007108F200F101A11572080319CC2B2108DA
:10075600F302031D031CD02B0310F21BB92BF80D5B
:10076600F00DF10DF20DF30BB02BD02B7B1B701C93
:10077600D42BF81FD42BF00A0319F10A0319F20A35
:10078600031DD42BF20CF10CF00CF30A0319D82B31
:10079600D42B0130FC008322DB2B0230FC008A22A2
:1007A600DB2B0430FC009622DB2B0830FC009A225F
:0407B6000000080037
:1007BA0083120313FB017308031D77080319342CF2
:1007CA0072087606FA007708F3077E30031CF12BCD
:1007DA00F3020318372CF42BF302031C3A2C720889
:1007EA00F8007108FC007008FD00F817F6170310EE
:1007FA00F201F101F0011830A1007D1C0E2C7408E1
:10080A00F00775080318750FF10776080318760FB5
:10081A00F207F20CF10CF00CF80CFC0CFD0C0310B6
:10082A00A10B022CF21B1E2CF80DF00DF10DF20D8E
:10083A00F3037B1B701C302CF81F302CF00A0319B1
:10084A00F10A0319F20A031D302CF20CF10CF00C18
:10085A00F30A0319372CFA1FF21300303C2C01302B
:10086A0083223C2C02309A223C2C04308A2200003B
:02087A00080074
:10087C0083120313FD01F801700803190034740688
:10088C00FA00FA1BFD09FB01F41F4E2CF409F40AC3
:10089C00F01F522CF009F00A70087404FA00FA1BCD
:1008AC00762C7408F802F00D700DF80D7408F8072A
:1008BC00F00D0630FC00700DF80D74087018F8027D
:1008CC00701CF807F00DFC0B612C701CF8077B18E2
:1008DC00842CFD1F0034F009F00AF809F80A0034E2
:1008EC00F41F812CF01B7E2C7008F800F0016F2C8B
:1008FC00F001F00A0034F009FB0A572CF80A7408CE
:10090C007802031D6F2CF801F00AF01F6F2CFF34D6
:02091C000800D1
:06091E00FB15FF3008008C
:10092400831603133708F2007208F100F20A38083C
:10093400F000B80A700884000008F0007108840010
:10094400700880007108840000080319AA2C962CF2
:060954003708F000080066
:10095A00831203137008F8007108F0007208F1009E
:10096A007308F200F301FB01FC019E30F300FA0167
:10097A00F21FCB2CF809F009F109F209F80A031958
:10098A00F00A0319F10A0319F20AFA170230FC00F5
:04099A0083230800AB
:10099E00831203137408003A031DEA2C7508003AFB
:1009AE00031DEA2C7608003A031DEA2C7708003A5C
:1009BE00031DEA2CFF30F000FF30F1007F30F20013
:1009CE00FF30F300852D8312031377080319792D59
:1009DE00730803197C2D720876068039FA00F21717
:1009EE00F617A1017208F8007108FC007008FD00EE
:1009FE007408FD027508031C750FFC027608031CB3
:100A0E00760FF802F801FC01FD01031C152D0310F1
:100A1E00F20CF10CF00CF80C0130A1007708F30287
:100A2E00031C1F2D7E302107F30703187F2D242D65
:100A3E007E302107F307031C822D1830FA07FD0DB7
:100A4E00FC0DF80DF00DF10DF20DA10D7408F00274
:100A5E007508031C750FF1027608031C760FF2025F
:100A6E00760DA104211C3D2D7D14482D7408F00730
:100A7E0075080318750FF10776080318760AF20742
:100A8E007D10FA031F307A05031D262D7B1B7D1C5E
:100A9E006F2D0310F00DF10DF20DA10D7408F00283
:100AAE007508031C750FF1027608031C760FF2020F
:100ABE00760D21040139FD070318FC0A0319F80A03
:100ACE00031D6F2DF80CFC0CFD0CF30A03197F2D82
:100ADE00FA1FF8137808F2007C08F1007D08F00088
:100AEE000030842D01308F24842D02308322842DFA
:0E0AFE0004309A22842D08308A22000008005D
:100B0C00831203132230FC00F801F901FA01FB01F6
:100B1C00FC030319BC2D0310FB0CFA0CF90CF80C9C
:100B2C00F30CF20CF10CF00C031C8E2DFC030319CE
:100B3C00AE2D7408F80775080318750FF9077608B9
:100B4C000318760FFA0777080318770FFB07922D17
:100B5C007408F80775080318750FF9077608031859
:0E0B6C00760FFA0777080318770FFB070800CB
:100B7A0083160313B101B2012C08B3002D08B40087
:100B8A002E08B5002F08B60080302F06F0008030FE
:100B9A007002031DDA2D00302E02031DDA2D0030FB
:100BAA002D02031DDA2D00302C020318022E01300B
:100BBA00B1000030B200F401F501F601F7012C088A
:100BCA00F0002D08F1002E08F2002F08F300740837
:100BDA00B3007508B4007608B5007708B600700847
:100BEA00B3027108031C710FB4027208031C720F5E
:100BFA00B5027308031C730FB6023308B700340832
:100C0A00B8003508B9003608BA003008BB0000231E
:100C1A000B308312EE000030EF006F08003C031D1A
:100C2A00182E6E08003C0318372E6E0883163007FC
:100C3A00F200013083126E02F0000030031C013E04
:100C4A006F02F10070088316300784000008F00074
:100C5A00720884007008800001308312EE02031CBF
:100C6A00EF03122E831630088400203080003108EA
:100C7A00320403195B2E8312EE01EF016E0883160C
:100C8A00300784000008203A031D502E8312EE0A12
:100C9A000319EF0A432E83120130EE02031CEF03FD
:0E0CAA006E088316300784002D30800008008D
:100CB80083160313AC0183126E0884000008EF004A
:100CC8006F08003A0319752E6F088316B700F622CD
:100CD8008316AC0A2C0883126E0784000008EF0004
:040CE800642E08006E
:100CEC00831603130F168F160F170F197E2E7B2EDC
:100CFC001A30FC00F830FD00FD0B822EFC0B822E0E
:040D0C0000000800DB
:100D10006C238A110A128000840AB10A0319B20AEC
:080D2000F003031D882E0800FA
:100D28008316031788018901FF3003138500FF30FC
:100D38008600FE30870084308100063083128100EF
:100D480031309000053097000C1183160C15C03017
:0C0D58008B00333099001815732308003D
:100D6400FC267626942601308706B0010B11FA3052
:100D740030020318C42E0B1DC32EB00A0B1106300B
:080D84008100B92EB52EC52E29
:100DF800263084000A3083120313F000F130B1006A
:080E08000630B2008826080044
:1010000083160313B501B6012C08B1002D08B200F8
:101010002E08B3002F08B4003408FF3A031D1A2825
:101020003308FF3A031D1A283208FF3A031D1A2815
:101030003108FF3A031D26283008B7002630B800D3
:101040008A1192248A150330F000272A0130831276
:10105000EE008316B31F392880303306F000700885
:10106000B3008312EE0A8316300884002D3080000E
:10107000B00A0030F0003406031D4828700833061B
:10108000031D482870083206031D48283108003A1D
:10109000031D53283008B7002E30B8008A1192245F
:1010A0008A15F001272A3408FF3A031D6128330806
:1010B000003A031D61283208003A031D61283108F7
:1010C000003A031D6E283008B7002A30B8008A1194
:1010D00092248A1583126E08F000272A0030F4004B
:1010E0000030F5000030F6007F30F700831631083D
:1010F000F0003208F1003308F2003408F3008A11DE
:10110000A6228A15013003180030F0007008031978
:10111000A82883163108F0003208F1003308F200E5
:101120003408F3000030F4000030F5002030F60001
:101130008230F7008A11DD238A1570088316B1000A
:101140007108B2007208B3007308B400B6036E28C9
:1011500083160030F4000030F5002030F6008230B5
:10116000F7003108F0003208F1003308F2003408CB
:10117000F3008A11A6228A150130031C0030F0000A
:1011800070080319E22883163108F0003208F100D4
:101190003308F2003408F300CD30F400CC30F50011
:1011A0004C30F6007B30F7008A11DD238A15700879
:1011B0008316B1007108B2007208B3007308B4005E
:1011C000B60AA8288316FF303105F800FF30320533
:1011D000F9007F303305FA0000303405FB00780851
:1011E000F4007908F5007A08F6007B08F700F40DA2
:1011F000F50DF60DF70D741000303105F0000030DC
:101200003205F10000303305F200FF303405F30001
:101210007008B1007108B2007208B3007308B4001E
:1012200074083104F00075083204F10076083304C4
:10123000F20077083404F3007008B1007108B200BE
:101240007208B3007308B4007F303402F0007008F5
:101250008312EF0001308316B4007008F4003108E7
:10126000F0003208F1003308F2003408F30074088B
:1012700003194129F00DF10DF20DF30D7010FF3E31
:1012800038297008B1007108B2007208B300730801
:10129000B4003408303EF00030088400700880004C
:1012A000B00A80303606F0008030013A7002031C2C
:1012B00062298030063AF000803036067002031C46
:1012C00062296929300884002E308000B00A01307C
:1012D000B50006308312EF006F08003A0319CA29DF
:1012E0008316B4013108F0003208F1003308F2002F
:1012F0003408F300F00DF10DF20DF30D7010F00D48
:10130000F10DF20DF30D70103108F00732080318DB
:10131000320FF10733080318330FF20734080318AC
:10132000340FF3077008B1007108B2007208B300FF
:101330007308B4003108F0003208F1003308F200FD
:101340003408F300F00DF10DF20DF30D701070087C
:10135000B1007108B2007208B3007308B400340819
:10136000303EF0003008840070088000B00A350874
:10137000003A031DC729B6033608003A031DC729E2
:10138000300884002E308000B00A0130B50083128E
:10139000EF036C29FF308316300784000008303AD1
:1013A000031DD429B003CA29FF3030078400000888
:1013B0002E3A031DDC29B0033608003A0319232A0C
:1013C0003008840065308000B00A80303606F000B6
:1013D0008030003A70020318F529300884002D305F
:1013E0008000B00A3608003CB60036088312EF00D1
:1013F0008030093AF00080308316360670020318F8
:10140000112A0A30F40083126F08F0008A113E247A
:101410008A153030F0078316300884007008800089
:10142000B00A0A30F40083126F08F0008A113E24DB
:101430008A157808F0003030F007831630088400F1
:1014400070088000B00A300884008001F0010800B4
:100D960050346534723469346F3464342A343734E9
:0A0DA6002E3435343A342034003482
:100DB0002034753473342C34203446346C346F341E
:100DC000773472346134743465343A342034003406
:100DD00020344C342F346D3469346E342034003474
:020DE0000034DD
:080DE2004E3461344E3400343C
:080DEA0049344E344634003454
:040DF2003034003465
:04400E00F42F000784
:00000001FF
